:100B3E00020A000002170000021B0000020800005B
:100B4E00021900000B0C54494D453A30303A303002
:010B5E000096
:100A9600E4F5A0C282C280C2817F38FE120B6012CA
:100AA6000B1A7F067E00120B60120B1A7F0C7E005B
:100AB600120B60120B1A7F017E00120B60120B1ACA
:070AC6007F807E00020B603F
:040B1A007F047E00D6
:100B1E00E4FDFCC3ED9FEC9E5015E4FBFA0BBB000D
:0F0B2E00010ABA01F8BB7EF50DBD00010C80E491
:010B3D002295
:100B6000C280C281D2828FA07F0A7E00120B1EC279
:020B70008222DF
:100B7200D280C281D2828FA07F0A7E00120B1EC257
:020B82008222CD
:100AF5008B208A218922AB20AA21A9221208AD6068
:100B0500130522E5227002052114F91208ADFF1222
:050B15000B7280E222DA
:0B09DD007C007D0A1208C6AE04AF05C6
:1009E800EF4E70037F3022EF64014E70037F312297
:1009F800EF64024E70037F3222EF64034E70037F70
:100A08003322EF64044E70037F3422EF64054E7086
:100A1800037F3522EF64064E70037F3622EF6407AA
:100A28004E70037F3722EF64084E70037F38227FB1
:020A3800392261
:100A3A007F807E00120B60D3E51C943BE51B64802B
:100A4A009480400D0509E50970020508E4F51BF5D7
:100A5A001CAE1BAF1C7C007D0A1208C61209E88F67
:100A6A0014AE1BAF1C1209DD8F15AE08AF097C004E
:100A7A007D0A1208C61209E88F11AE08AF091209D9
:0C0A8A00DD8F127B007A00790C020AF567
:03000B00020800E8
:10080000C0E0C0F0C083C082C0D075D000C000C0BE
:1008100001C002C003C004C005C006C007C3E5187C
:10082000941EE517648094805012E50B6401450A1C
:10083000700A0518E518700205178056E518641E41
:1008400045177018E50B6401450A7010758C6B75BF
:100850008A900518E518700205178036E518641FA0
:100860004517701BE50B6401450A7013051CE51C58
:100870007002051B751700751800120A3A8013D311
:10088000E518941FE517648094804006751700757D
:100890001800D007D006D005D004D003D002D00174
:0D08A000D000D0D0D082D083D0F0D0E03294
:100ACD00120A96120A3AD2AFD2A9758901E4F58CB1
:100ADD00F58AD28CD290309008750A00750B018082
:080AED00F3E4F50AF50B80ECBF
:03000000020951A1
:0C095100787FE4F6D8FD75812202099839
:1008AD00BB010689828A83E0225002E722BBFE0249
:0908BD00E32289828A83E493227C
:1008C600C2D5EC30E709B2D5E4C39DFDE49CFCEE4D
:1008D60030E715B2D5E4C39FFFE49EFE1208FCC3C1
:1008E600E49DFDE49CFC80031208FC30D507C3E4BC
:0608F6009FFFE49EFE22BC
:10095D00020ACDE493A3F8E493A34003F68001F2D9
:10096D0008DFF48029E493A3F85407240CC8C3339B
:10097D00C4540F4420C8834004F456800146F6DF6A
:10098D00E4800B0102040810204080900B3EE47EB1
:10099D00019360BCA3FF543F30E509541FFEE4935F
:1009AD00A360010ECF54C025E060A840B8E493A326
:1009BD00FAE493A3F8E493A3C8C582C8CAC583CA51
:1009CD00F0A3C8C582C8CAC583CADFE9DEE780BE09
:010B5F000095
:1008FC00BC000BBE0029EF8DF084FFADF022E4CCE0
:10090C00F875F008EF2FFFEE33FEEC33FCEE9DECA8
:10091C00984005FCEE9DFE0FD5F0E9E4CEFD22EDEE
:10092C00F8F5F0EE8420D21CFEADF075F008EF2F38
:10093C00FFED33FD4007985006D5F0F222C398FD29
:05094C000FD5F0EA22C6
:00000001FF
