:100C7B000424000038EB0428000021BC0410000001
:100C8B000000040800000000041800000000040C21
:100C9B0000000000041400000000041C0000000011
:0C0CAB00042000000000042C00000000E9
:080AC4008E308F31AB05AA044E
:100ACC007C007D0A120800E48F358E34F533F53244
:100ADC00AE30AF31FC7D0A120800AE04AF05E48FD6
:100AEC00398E38F537F536FC7D0AAF03AE021208A5
:100AFC0000E48F3D8E3CF53BF53AAE02AF03FC7D36
:100B0C000A120800AE04AF05E48F418E40F53FF5A4
:100B1C003EAD3FAC3EAB39AA38A937A836120855C2
:100B2C008F458E448D438C42E541253DFBE5403598
:100B3C003CFAE53F353BF9E53E353AF8E5392535E4
:100B4C00FFE5383534FEE5373533FDE5363532FC17
:100B5C001208558F498E488D478C46AF3DAE3CAD43
:100B6C003BAC3AAB35AA34A933A8321208558F4D99
:100B7C008E4C8D4B8C4AC3E5499545FFE548954411
:100B8C00FEE5479543FDE5469542FCC3EF954DFFC9
:100B9C00EE954CFEED954BFDEC954AFCE47B0AFA88
:100BAC00F9F8120855EF2545FFEE3544FEED3543B7
:100BBC00FDEC3542FCC004C005C006C007E47F64F0
:100BCC00FEFDFCAB4DAA4CA94BA84A120855D0030C
:100BDC00D002D001D000EF2BFFEE3AFEED39FDEC48
:020BEC0038FCD3
:010BEE0022E4
:10097200758901E4F58CF58AD28C7B0AFAF9F8AF15
:1009820027AE26AD25AC241208E08F138E128D11EE
:100992008C10E47B0AFAF9F8AF27AE26AD25AC2419
:1009A2001208E0AC00AD01AE02AF038F0B8E0A8DD0
:1009B200098C08E47B0AFAF9F8AF2BAE2AAD29AC10
:1009C200281208E08F1B8E1A8D198C18E47B0AFA04
:1009D200F9F8AF2BAE2AAD29AC281208E0AC00AD75
:1009E20001AE02AF038F0F8E0E8D0D8C0CAB0BAAD6
:1009F2000AA909A8081208558F178E168D158C148E
:100A0200E50F251BFBE50E351AFAE50D3519F9E55B
:100A12000C3518F8E50B2513FFE50A3512FEE5093A
:100A22003511FDE5083510FC1208558F1F8E1E8DFD
:100A32001D8C1CAF1BAE1AAD19AC18AB13AA12A9B0
:100A420011A8101208558F238E228D218C20C3E508
:100A52001F9517FFE51E9516FEE51D9515FDE51C74
:100A62009514FCC3EF9523FFEE9522FEED9521FD33
:100A7200EC9520FCE47B0AFAF9F8120855EF2517E9
:100A8200FFEE3516FEED3515FDEC3514FCC004C045
:100A920005C006C007E47F64FEFDFCAB23AA22A9C1
:100AA20021A820120855D003D002D001D000EF2B8C
:100AB200F52FEE3AF52EED39F52DEC38F52CC28CEA
:020AC20080FEB4
:03000000020BEF01
:0C0BEF00787FE4F6D8FD75814D020C36CD
:10080000BC000BBE0029EF8DF084FFADF022E4CCDC
:10081000F875F008EF2FFFEE33FEEC33FCEE9DECA5
:10082000984005FCEE9DFE0FD5F0E9E4CEFD22EDEB
:10083000F8F5F0EE8420D21CFEADF075F008EF2F35
:10084000FFED33FD4007985006D5F0F222C398FD26
:050850000FD5F0EA22C3
:10085500E88FF0A4CC8BF0A42CFCE98EF0A42CFC42
:100865008AF0EDA42CFCEA8EF0A4CDA8F08BF0A4C0
:100875002DCC3825F0FDE98FF0A42CCD35F0FCEB1F
:100885008EF0A4FEA9F0EB8FF0A4CFC5F02ECD39E4
:0F089500FEE43CFCEAA42DCE35F0FDE43CFC2251
:1008A40075F008758200EF2FFFEE33FECD33CDCC0B
:1008B40033CCC58233C5829BED9AEC99E58298408E
:1008C4000CF582EE9BFEED9AFDEC99FC0FD5F0D66B
:1008D400E4CEFBE4CDFAE4CCF9A88222B800C1B995
:1008E4000059BA002DEC8BF084CFCECDFCE5F0CBD3
:1008F400F97818EF2FFFEE33FEED33FDEC33FCEB0C
:1009040033FB10D703994004EB99FB0FD8E5E4F9C6
:10091400FA227818EF2FFFEE33FEED33FDEC33FCB3
:10092400C933C910D7059BE99A4007EC9BFCE99AA7
:10093400F90FD8E0E4C9FAE4CCFB2275F010EF2FEC
:10094400FFEE33FEED33FDCC33CCC833C810D707EC
:100954009BEC9AE899400AED9BFDEC9AFCE899F827
:0E0964000FD5F0DAE4CDFBE4CCFAE4C8F922BA
:100BFB00020972E493A3F8E493A34003F68001F295
:100C0B0008DFF48029E493A3F85407240CC8C333FA
:100C1B00C4540F4420C8834004F456800146F6DFC9
:100C2B00E4800B0102040810204080900C7BE47ED2
:100C3B00019360BCA3FF543F30E509541FFEE493BE
:100C4B00A360010ECF54C025E060A840B8E493A385
:100C5B00FAE493A3F8E493A3C8C582C8CAC583CAB0
:100C6B00F0A3C8C582C8CAC583CADFE9DEE780BE68
:010CB700003C
:00000001FF
